{
  "_format": "hh-sol-artifact-1",
  "contractName": "Lottery",
  "sourceName": "contracts/Lottery.sol",
  "abi": [
    {
      "inputs": [],
      "stateMutability": "nonpayable",
      "type": "constructor"
    },
    {
      "inputs": [],
      "name": "enterInLottery",
      "outputs": [],
      "stateMutability": "payable",
      "type": "function"
    },
    {
      "inputs": [],
      "name": "getBalance",
      "outputs": [
        {
          "internalType": "uint256",
          "name": "",
          "type": "uint256"
        }
      ],
      "stateMutability": "view",
      "type": "function"
    },
    {
      "inputs": [
        {
          "internalType": "address payable",
          "name": "player",
          "type": "address"
        }
      ],
      "name": "getBalanceAddr",
      "outputs": [
        {
          "internalType": "uint256",
          "name": "",
          "type": "uint256"
        }
      ],
      "stateMutability": "view",
      "type": "function"
    },
    {
      "inputs": [],
      "name": "getPlayers",
      "outputs": [
        {
          "internalType": "address[]",
          "name": "",
          "type": "address[]"
        }
      ],
      "stateMutability": "view",
      "type": "function"
    },
    {
      "inputs": [],
      "name": "manager",
      "outputs": [
        {
          "internalType": "address",
          "name": "",
          "type": "address"
        }
      ],
      "stateMutability": "view",
      "type": "function"
    },
    {
      "inputs": [],
      "name": "pickWinner",
      "outputs": [],
      "stateMutability": "nonpayable",
      "type": "function"
    },
    {
      "inputs": [
        {
          "internalType": "uint256",
          "name": "",
          "type": "uint256"
        }
      ],
      "name": "players",
      "outputs": [
        {
          "internalType": "address",
          "name": "",
          "type": "address"
        }
      ],
      "stateMutability": "view",
      "type": "function"
    }
  ],
  "bytecode": "0x608060405234801561001057600080fd5b5033600160006101000a81548173ffffffffffffffffffffffffffffffffffffffff021916908373ffffffffffffffffffffffffffffffffffffffff160217905550610c2e806100616000396000f3fe6080604052600436106100705760003560e01c8063481c6a751161004e578063481c6a75146100e75780635d495aea146101125780638b5b9ccc14610129578063f71d96cb1461015457610070565b806312065fe0146100755780632b91e60f146100a057806333592fef146100dd575b600080fd5b34801561008157600080fd5b5061008a610191565b60405161009791906106d5565b60405180910390f35b3480156100ac57600080fd5b506100c760048036038101906100c29190610753565b610229565b6040516100d491906106d5565b60405180910390f35b6100e561024a565b005b3480156100f357600080fd5b506100fc6102f9565b60405161010991906107a1565b60405180910390f35b34801561011e57600080fd5b5061012761031f565b005b34801561013557600080fd5b5061013e61050e565b60405161014b919061087a565b60405180910390f35b34801561016057600080fd5b5061017b600480360381019061017691906108c8565b61059c565b60405161018891906107a1565b60405180910390f35b6000600160009054906101000a900473ffffffffffffffffffffffffffffffffffffffff1673ffffffffffffffffffffffffffffffffffffffff163373ffffffffffffffffffffffffffffffffffffffff1614610223576040517f08c379a000000000000000000000000000000000000000000000000000000000815260040161021a90610952565b60405180910390fd5b47905090565b60008173ffffffffffffffffffffffffffffffffffffffff16319050919050565b67016345785d8a00003414610294576040517f08c379a000000000000000000000000000000000000000000000000000000000815260040161028b906109be565b60405180910390fd5b6000339080600181540180825580915050600190039060005260206000200160009091909190916101000a81548173ffffffffffffffffffffffffffffffffffffffff021916908373ffffffffffffffffffffffffffffffffffffffff160217905550565b600160009054906101000a900473ffffffffffffffffffffffffffffffffffffffff1681565b600160009054906101000a900473ffffffffffffffffffffffffffffffffffffffff1673ffffffffffffffffffffffffffffffffffffffff163373ffffffffffffffffffffffffffffffffffffffff16146103af576040517f08c379a00000000000000000000000000000000000000000000000000000000081526004016103a690610a2a565b60405180910390fd5b600360008054905010156103f8576040517f08c379a00000000000000000000000000000000000000000000000000000000081526004016103ef90610abc565b60405180910390fd5b60006104026105db565b9050600080600080549050836104189190610b0b565b90506000818154811061042e5761042d610b3c565b5b9060005260206000200160009054906101000a900473ffffffffffffffffffffffffffffffffffffffff1691508173ffffffffffffffffffffffffffffffffffffffff166108fc61047d610191565b9081150290604051600060405180830381858888f193505050501580156104a8573d6000803e3d6000fd5b50600067ffffffffffffffff8111156104c4576104c3610b6b565b5b6040519080825280602002602001820160405280156104f25781602001602082028036833780820191505090505b5060009080519060200190610508929190610615565b50505050565b6060600080548060200260200160405190810160405280929190818152602001828054801561059257602002820191906000526020600020905b8160009054906101000a900473ffffffffffffffffffffffffffffffffffffffff1673ffffffffffffffffffffffffffffffffffffffff1681526020019060010190808311610548575b5050505050905090565b600081815481106105ac57600080fd5b906000526020600020016000915054906101000a900473ffffffffffffffffffffffffffffffffffffffff1681565b600044426000805490506040516020016105f793929190610bbb565b6040516020818303038152906040528051906020012060001c905090565b82805482825590600052602060002090810192821561068e579160200282015b8281111561068d5782518260006101000a81548173ffffffffffffffffffffffffffffffffffffffff021916908373ffffffffffffffffffffffffffffffffffffffff16021790555091602001919060010190610635565b5b50905061069b919061069f565b5090565b5b808211156106b85760008160009055506001016106a0565b5090565b6000819050919050565b6106cf816106bc565b82525050565b60006020820190506106ea60008301846106c6565b92915050565b600080fd5b600073ffffffffffffffffffffffffffffffffffffffff82169050919050565b6000610720826106f5565b9050919050565b61073081610715565b811461073b57600080fd5b50565b60008135905061074d81610727565b92915050565b600060208284031215610769576107686106f0565b5b60006107778482850161073e565b91505092915050565b600061078b826106f5565b9050919050565b61079b81610780565b82525050565b60006020820190506107b66000830184610792565b92915050565b600081519050919050565b600082825260208201905092915050565b6000819050602082019050919050565b6107f181610780565b82525050565b600061080383836107e8565b60208301905092915050565b6000602082019050919050565b6000610827826107bc565b61083181856107c7565b935061083c836107d8565b8060005b8381101561086d57815161085488826107f7565b975061085f8361080f565b925050600181019050610840565b5085935050505092915050565b60006020820190508181036000830152610894818461081c565b905092915050565b6108a5816106bc565b81146108b057600080fd5b50565b6000813590506108c28161089c565b92915050565b6000602082840312156108de576108dd6106f0565b5b60006108ec848285016108b3565b91505092915050565b600082825260208201905092915050565b7f596f7520617265206e6f7420746865206d616e61676572000000000000000000600082015250565b600061093c6017836108f5565b915061094782610906565b602082019050919050565b6000602082019050818103600083015261096b8161092f565b9050919050565b7f506c656173652073656e642065786163746c7920302e31206574686572000000600082015250565b60006109a8601d836108f5565b91506109b382610972565b602082019050919050565b600060208201905081810360008301526109d78161099b565b9050919050565b7f4f6e6c79204d616e616765722063616e207069636b207468652057696e6e6572600082015250565b6000610a146020836108f5565b9150610a1f826109de565b602082019050919050565b60006020820190508181036000830152610a4381610a07565b9050919050565b7f43616e6e6f74207069636b20612077696e6e65722077697468206c657373207460008201527f68616e2033207061727469636970616e74730000000000000000000000000000602082015250565b6000610aa66032836108f5565b9150610ab182610a4a565b604082019050919050565b60006020820190508181036000830152610ad581610a99565b9050919050565b7f4e487b7100000000000000000000000000000000000000000000000000000000600052601260045260246000fd5b6000610b16826106bc565b9150610b21836106bc565b925082610b3157610b30610adc565b5b828206905092915050565b7f4e487b7100000000000000000000000000000000000000000000000000000000600052603260045260246000fd5b7f4e487b7100000000000000000000000000000000000000000000000000000000600052604160045260246000fd5b6000819050919050565b610bb5610bb0826106bc565b610b9a565b82525050565b6000610bc78286610ba4565b602082019150610bd78285610ba4565b602082019150610be78284610ba4565b60208201915081905094935050505056fea2646970667358221220de0f497ec574fb2149db5752a4dcdc81ea64ec4bc5ca82b3dc0c378afba5304764736f6c63430008110033",
  "linkReferences": {},
  "deployedLinkReferences": {}
}